S00D00004352544F532E737265638C
S11300001825002075060000710600007106000026
S113001000000000000000000000000000000000DC
S11300200000000000000000000000007106000055
S113003000000000000000007106000069070000D5
S113004071060000710600007106000071060000D0
S113005071060000710600007106000071060000C0
S113006071060000710600007106000071060000B0
S113007071060000710600007106000071060000A0
S11300807106000071060000710600007106000090
S1130090710600000000000000000000E10A0000FA
S11300A07106000071060000710600007106000070
S11300B00000000010B5064C2378002B07D1054B37
S11300C0002B02D0044800E000BF0123237010BDC0
S11300D074040020000000009C100000084B10B5C0
S11300E0002B03D00749084800E000BF0748036815
S11300F0002B00D110BD064B002BFBD09847F9E72D
S113010000000000780400209C1000009C100000F7
S11301100000000010B5484B1A6A48490A401A62A8
S11301201A6A02210A431A62454B9A680D318A43BE
S11301309A609A68434802409A605A688A435A60AF
S11301405A685A605968802252020A435A605A888F
S11301503F218A431E210A435A805A8892B25A8008
S113016059888022D2010A435A80374B80214900A2
S113017084229950C8201A5CFE390A431A54195C27
S113018001242143C9B21954B4215A5C2243D2B286
S11301905A5480231B041A685B685901D20E0A431F
S11301A02A49088DFF242240A04302430A859B0666
S11301B00A8D5B0F1B022648024013430B850A6914
S11301C0244B13430B610A00537EDB09FCD11F4B04
S11301D05A78D2B25A709A8801218A439A801A00B6
S11301E0537EDB09FCD1194A938804210B43938085
S11301F0537EDB09FCD1154A137802210B4313709B
S1130200537EDB09FCD1114AD37D01210B43D37505
S1130210537EDB09FCD10D4AD3783F210B43D370C5
S1130220537EDB09FCD1094A137E01210B4313766B
S1130230537EDB09FCD110BD00080040FFFCFFFF2A
S1130240000C0040FF0000FF004400410040004259
S1130250FFF8FFFF0218000030B56B4B1A6A6B48B9
S113026002401A621A6A022002431A62684B9868B2
S11302700F25A8430324204398609868654A1040DA
S113028098605A68AA4322435A605868C022D20030
S113029002435A6058688022520202435A60052978
S11302A000D993E089005C4B5B589F46584B14225D
S11302B05A805A88C02189000A435A80598880226A
S11302C0D2010A435A80554AD37A07218B43D37209
S11302D0524A136A04210B43136230BD4C4B15225E
S11302E05A805A88C02189000A435A80598880223A
S11302F0D2010A435A80494AD37A07218B43D372E5
S1130300464A136A08210B431362E6E7404B162260
S11303105A805A88C02189000A435A805988802209
S1130320D2010A435A803D4AD37A07218B43D372C0
S11303303A4A136A10210B431362CEE7344B172257
S11303405A805A88C02189000A435A8059888022D9
S1130350D2010A435A80314AD37A07218B43D3729C
S11303602E4A136A20210B431362B6E7284B182246
S11303705A805A88C02189000A435A8059888022A9
S1130380D2010A435A80254AD37A07218B43D37278
S1130390224A136A40210B4313629EE71C4B192225
S11303A05A805A88C02189000A435A805988802279
S11303B0D2010A435A80194AD37A07218B43D37254
S11303C0164A136A80210B43136286E7104B1422EA
S11303D05A805A88C020800002435A80588880225C
S11303E0D20102435A800D4AD37A07208343D37241
S11303F0052905D9094A136A04210B4313626CE7E2
S11304008900074B5B589F4600080040FFFCFFFF34
S1130410000C0040FF0000FF4410000000040040F6
S11304205C100000F0B5DE4657464E464546E0B542
S113043085B00C0011000200002308000021264DA5
S1130440A8478346260000270023994601930022EB
S113045000233F21202082461F38844602960397BA
S113046012E05046401A6446C440200013E0029C47
S1130470039D121BAB414C4645462C43019D05434D
S1130480A146019501391CD3202040420818E8D424
S113049064468440200064468C40A04692185B4128
S11304A014001D005E46304203D0664626433200E7
S11304B02B00029C039D9D42E4D8D8D19442E1D8FC
S11304C0D5E74B465842000C05B03CBC90469946D3
S11304D0A246AB46F0BDC046BD0D0000F0B5DE46F9
S11304E057464E464546E0B585B0040C0E0C420D09
S11304F0FF231A40029255010194651B4C0D2340C1
S11305005C01341BA146012427004A469740DB01C5
S1130510394A904643449F609A46CA4440229446CE
S1130520E244524612789446022290466746424676
S113053017433A1C6F46FA73FA7B94465246674651
S1130540177012789346012294465F466246174319
S11305503A1C6F46FA73FA7B934652465F4617700D
S11305604A46520891464B4430331A789146264005
S1130570B20092460F2637009740BB464F465A4674
S113058097431F701A7891460904090C524691400A
S11305904A461143C9B219702100A940029BDB01EC
S11305A0154A91464B4459605A19403211784746CE
S11305B03943C9B2117011780427B9431170117805
S11305C067463943C9B211706D085B1930331A7824
S11305D001990C40A400A640B2431A701A78000492
S11305E0000CA0401043C0B2187005B03CBC90464B
S11305F09946A246AB46F0BD0044004170B50400E4
S113060008001B04C025AD022B4019000D4B0B4301
S11306101205C02189030A401A43226010220A49A4
S11306200A4B9847A0816560E3695B07FCD4042307
S1130630A3752368022213432360E3691A42FCD1A1
S113064070BDC0468400004000127A0025040000FA
S1130650007EC007C00F01235840704789B201854E
S11306607047007E4007C00F7047008D80B270470E
S1130670FEE70000F8B52A4A2A4B9A4211D01A0024
S1130680294B9A420DD2294A03339B1A9B08013302
S11306909B000022234822498C58845004329A42F9
S11306A0FAD1234A234B9A420AD2D34321495B18F5
S11306B003218B4304339B18002102C29342FCD1D3
S11306C01D4AFF211D4B8B439360FD3990235B0032
S11306D01B4AD1501B4AD3780325AB43022423433E
S11306E0D370D3780C27BB4308263343D370164BFF
S11306F0987B30229043202210439873997BB9430E
S1130700314399739A7BAA4322439A730F4A5368DD
S113071080210B4353600E4B98470E4B9847FEE7DE
S11307209C1000000000002074040020040000203D
S1130730740400201805002000ED00E00000000013
S11307400070004100500041004800410040004159
S1130750110E0000190B0000014A024B1A60704789
S113076040420F0000000020044B1A6801321A6056
S113077003490A6801320A601B687047B00400200C
S1130780AC04002010B50B4B802292029A609A614F
S1130790094A00201060094B5360094C236A1B026C
S11307A01B0AC02109060B432362906007231360D0
S11307B010BDC0460044004110E000E07FBB0000D3
S11307C000ED00E0344A53681E218B431C390B436F
S11307D05360324B832292009A829A8A0A439A8205
S11307E01A00D3689B07FCD52D4B0222FF329A6076
S11307F02C4A5A601A005378DB09FCD1284B822218
S1130800D2015A80254AD368DB06FCD50222234B49
S11308109A841A00D368DB06FCD5204B224ADA629C
S11308201A00D368DB06FCD5204B1A681B498B6A77
S1130830920E92021E48034013438B620A00D3684F
S1130840DB06FCD5154A938C1A490B439384144B4D
S1130850194A5A601A005378DB09FCD1174B184A1D
S11308609A620E4B1A6A17490A401A621A6A802160
S11308708A431A620A4B0422FF329A60124A5A606F
S11308801A005378DB09FCD1104B00221A725A72F9
S11308909A72DA727047C046004000410008004076
S11308A0000C004001050300B905FF7D24608000B1
S11308B0FF03FFFF0408000000070B000044004191
S11308C0001001D7FFFCFFFF0306030000040040F3
S11308D070B5040001220368002B00D09F4600225B
S11308E0414B5A60403200214048414B9847414BAC
S11308F0236001231BE03F4B03600123002A16D031
S11309003D483E4B98470123002810D03A483C4BC1
S11309109847354B18723B4B2360012307E0394B52
S113092003603548384B98470123002801D018004C
S113093070BD2D4D297A3048344B98472B7A0D2BB6
S113094008D07F2B4BD028494A68501C486027495F
S11309508B5437E0244B5B680021244AD1542C4B40
S113096023600123E3E72A4B03602348264B98477F
S113097001230028DBD10A211F48244B984726E095
S1130980244B03601C48204B984701230028CED1F8
S1130990202119481D4B98471F4B23600123C6E7AC
S11309A01D4B03601448184B984701230028BED1FF
S11309B07F211148154B98470B4B5B68013B0AD4C8
S11309C0094A5360084B5B683F2B00DC8FE7002328
S11309D023600233ABE70022034B5A6087E70D4BD9
S11309E023600123A3E7C04690040020B404002040
S11309F0590E0000F60800000008004263060000DB
S1130A006B0600001E090000510600005D06000090
S1130A106609000080090000A009000070B5040008
S1130A2001230268002A05D0124A22600120002B0B
S1130A300CD170BD104B1A600F4B1B680F4AD25C6F
S1130A400023002AF0D123600220F2E70C480D4B6A
S1130A50984703000120002BEBD1074D074B2A6870
S1130A60995CC9B20648084B98472B6801332B6040
S1130A70E2E7C046280A0000A80400200400002081
S1130A8000080042510600005D060000F8B5CE469D
S1130A90474680B504000F4B0D225A71033A9A71F0
S1130AA004250D4B99460B4B98460C4F6E1E0A219C
S1130AB02000C8473031C9B2434659550A212000A5
S1130AC0B84704B23500731CF0D10CBC904699466B
S1130AD0F8BDC04604000020B10D0000E50B000085
S1130AE010B50A4B1B7EDB070ED5094AD16980235A
S1130AF09B020B43D361054B588B00B21A00537E03
S1130B00DB09FCD1034B984710BDC04600400042AE
S1130B10004400418D0A0000F8B5224B9847224B4F
S1130B209847224C00212000214B98472149224814
S1130B30224B984701230322962189012000204C4F
S1130B40A047204B996880229202114399609969C9
S1130B500A439A611C4B98471C4B0022DA601A61C5
S1130B601B4B9847194D0C351A4E184C10341A4F1C
S1130B702800B8470128FBDD337EDB07FCD5114A8A
S1130B80D16980239B020B43D361708B00B2737EC7
S1130B90DB09FCD1114B9847114F2000B8470128BD
S1130BA0FBD0E4E759070000C50700000008004235
S1130BB05902000002000A0002000B00DD040000DC
S1130BC0FD0500000044004185070000900400205A
S1130BD01501000000400042D10800008D0A000009
S1130BE01D0A000003460B437FD4002243088B42B6
S1130BF074D303098B425FD3030A8B4244D3030BA0
S1130C008B4228D3030C8B420DD3FF22090212BA64
S1130C10030C8B4202D31212090265D0030B8B42E0
S1130C2019D300E0090AC30B8B4201D3CB03C01ACA
S1130C305241830B8B4201D38B03C01A5241430BA5
S1130C408B4201D34B03C01A5241030B8B4201D395
S1130C500B03C01A5241C30A8B4201D3CB02C01A00
S1130C605241830A8B4201D38B02C01A5241430A78
S1130C708B4201D34B02C01A5241030A8B4201D367
S1130C800B02C01A5241CDD2C3098B4201D3CB010E
S1130C90C01A524183098B4201D38B01C01A5241BD
S1130CA043098B4201D34B01C01A524103098B42C1
S1130CB001D30B01C01A5241C3088B4201D3CB00AC
S1130CC0C01A524183088B4201D38B00C01A52418F
S1130CD043088B4201D34B00C01A5241411A00D23F
S1130CE001465241104670475DE0CA0F00D04942A8
S1130CF0031000D34042534000229C4603098B4218
S1130D002DD3030A8B4212D3FC22890112BA030A9F
S1130D108B420CD3890192118B4208D38901921121
S1130D208B4204D389013AD0921100E08909C309A6
S1130D308B4201D3CB01C01A524183098B4201D3A8
S1130D408B01C01A524143098B4201D34B01C01A93
S1130D50524103098B4201D30B01C01A5241C3080B
S1130D608B4201D3CB00C01A524183088B4201D37A
S1130D708B00C01A5241D9D243088B4201D34B0095
S1130D80C01A5241411A00D20146634652415B10D7
S1130D90104601D34042002B00D5494270476346B8
S1130DA05B1000D3404201B5002000F005F802BDFD
S1130DB00029F8D016E770477047C046F0B5CE4614
S1130DC0474615042D0C2E0080B50704140C3F0C67
S1130DD09946030C7E435D43674363437F19340C98
S1130DE0E4199C46A54203D980235B029846C44477
S1130DF04B46514343433604360C250C24046544C6
S1130E00A4195918491920000CBC90469946F0BD04
S1130E1070B50D4E0D4D0024AD1BAD1005D0A300D3
S1130E20F35801349847A542F9D100F025F9084E4A
S1130E30084D0024AD1BAD1005D0A300F3580134B8
S1130E409847A542F9D170BD8410000084100000B9
S1130E50841000008C100000F0B5830743D0541EAA
S1130E60002A3FD0CEB20200032502E01A00013C62
S1130E7038D3531C16702B42F8D1032C2AD9FF22E5
S1130E800A40150215432A0415430F2C14D92700D0
S1130E901A00103F3E09013636019E19156055604F
S1130EA09560D56010329642F8D10F2297431037DF
S1130EB0DB191440032C0DD91A00271FBE08013674
S1130EC0B6009E1920C2B242FCD1032297430437D4
S1130ED0DB191440002C05D0C9B21C191970013358
S1130EE09C42FBD1F0BD14000300C6E7034B10B5D0
S1130EF0002B02D0024800F005F810BD00000000ED
S1130F00150F000010B5010000230022002000F09E
S1130F101FF810BD70B5094B094CE41AA41009D090
S1130F20084AA518AD00ED182B68013C9847043D0C
S1130F30002CF9D100F0AAF870BDC046981000004A
S1130F409C100000FFFFFF3F7047C0467047C0463B
S1130F50F0B54E464546DE465746E0B5364D83B0BD
S1130F600600286898460F009146FFF7EDFF334BC3
S1130F701C68A4235B00E058002852D043681F2B50
S1130F8013DC5A1C0192002E28D1019A02339B00D3
S1130F9042601F502868FFF7D9FF002003B03CBC13
S1130FA090469946A246AB46F0BD254B002B3DD05A
S1130FB0C820400000E000BF002837D0A42200234E
S1130FC05200A15843600160A05040328350043263
S1130FD08350013301930023002ED6D09A00924609
S1130FE082444A46882154466250C42252009146A3
S1130FF081444A468739994012688B460A4394468D
S11310004A4661461160842241465200A150022E94
S1131010BBD102005C468D32FF3211680C43146070
S1131020B3E720004D30FF30E050A7E72868FFF712
S11310308DFF01204042B1E77004002074100000CD
S113104000000000AC020000DC0200000C03000001
S11310503C0300006C0300009C030000D00200006D
S11310600003000030030000600300009003000050
S1131070C003000048000020F8B5C046F8BC08BC16
S11310809E467047ED0E0000DD000000F8B5C04636
S10F1090F8BC08BC9E467047B500000088
S113109C40420F0061636B0D0A0000000000000069
S11310AC0000000000000000000000000000000030
S11310BC0000000000000000000000000000000020
S11310CC0000000000000000000000000000000010
S11310DC00000000000000000000000034030020A9
S11310EC9C03002004040020000000000000000009
S11310FC00000000000000000000000000000000E0
S113110C00000000000000000000000000000000CF
S113111C00000000000000000000000000000000BF
S113112C00000000000000000000000000000000AF
S113113C000000000000000000000000000000009F
S113114C000000000000000000000000000000008F
S113115C000000000000000000000000000000007F
S113116C000000000000000000000000000000006F
S113117C000000000000000000000000000000005F
S113118C01000000000000000E33CDAB34126DE6FC
S113119CECDE05000B000000000000000000000065
S11311AC000000000000000000000000000000002F
S11311BC000000000000000000000000000000001F
S11311CC000000000000000000000000000000000F
S11311DC00000000000000000000000000000000FF
S107150CF4040020BF
S9030000FC
